:020000040800F2
:10000000700E00200109000861090008610900085C
:10001000610900086109000861090008000000008A
:10002000000000000000000000000000610900085E
:100030006109000800000000C51A0008C91D000879
:1000400061090008610900086109000861090008E8
:1000500061090008610900086109000861090008D8
:1000600061090008610900086109000861090008C8
:1000700061090008610900086109000861090008B8
:1000800061090008610900086109000861090008A8
:100090006109000861090008610900086109000898
:1000A0006109000861090008610900086109000888
:1000B0006109000861090008610900086109000878
:1000C0006109000861090008610900086109000868
:1000D00061090008D90500086109000861090008E4
:1000E0006109000861090008610900086109000848
:1000F0006109000861090008610900086109000838
:100100006109000861090008610900086109000827
:100110006109000861090008610900086109000817
:100120006109000861090008610900086109000807
:100130005FF808F180B400AF0C4A0D4B1A600B4B0E
:10014000C8330B4A53600B4B084A1A60094B1B68B3
:1001500000221A60074B1B6800225A60054B1B687F
:1001600000229A6000BFBD4680BC7047200000207E
:10017000EC000020E800002080B500AF0F4B1B789A
:10018000DBB2012B10D10E4B1B78012B01D100F0FB
:10019000EFFE0C4B1B78DBB2012B01D100F0DCFC35
:1001A000064B00221A7006E0044B1B78DBB2013BC1
:1001B000DAB2024B1A7000BF80BD00BFF50000200C
:1001C000F4020020F600002080B500AF164B174A5D
:1001D0001A60174B07221A60164A164B1B6843F029
:1001E0007F431360144A144B1B686FEA03436FEAA2
:1001F0001343136000F0B8FB01F054FBFFF79AFFC4
:100200000E4B1B78DBB20133DAB20C4B1A700C4B7D
:100210004FF4CA5200210B4800F062FD084801F07B
:100220003FFC00BF80BD00BF14E000E07FFC0A007F
:1002300010E000E01CED00E020ED00E0F500002003
:10024000A80200209D1F000880B500AF094B0A4A94
:100250001A60084B1B68094A1360064B1B68012291
:100260005A71044B1B68184600F032FCFFF784FFFC
:1002700000BF80BDB802002040010020B402002071
:1002800090B587B000AF0346FB71FA797049134609
:100290005B001344DB000B4404331B68FB60FB680A
:1002A000002B00F0D1806B4B1B78DBB20133DAB24C
:1002B000684B1A70684B1B68002B09D1FA791346FA
:1002C0005B001344DB00624A1344634A1360B8E0E6
:1002D000614B1B687B61FB683B61AEE03A697B69FF
:1002E0005B68D31A3B613B69002B7EDA7B695B69F3
:1002F000002B28D07B695969FA7913465B001344B7
:10030000DB00534A13440B61FA797B695969504801
:1003100013465B001344DB00034414331960FA797D
:100320004B4913465B001344DB000B4410337A69DE
:100330001A60FA7913465B001344DB00444A1A44FE
:100340007B695A611DE0FA79434B196840481346AE
:100350005B001344DB000344103319603E4B196803
:10036000FA7913465B001344DB00394A13444B61AE
:10037000FA7913465B001344DB00354A1344364ACE
:100380001360FA79F97932480B465B000B44DB00C5
:10039000034410331B6859683B6919442C481346C1
:1003A0005B001344DB00034404331960FA792849E5
:1003B00013465B001344DB000B4410331968FA79D1
:1003C000234813465B001344DB00034410331B68CF
:1003D0005868FA791E4C13465B001344DB00234433
:1003E00004331B68C31A4B602BE03B69002B21DBF5
:1003F0007B691B69002B1DD1FA79154913465B00F7
:100400001344DB000B4414337A691A60FA791346FB
:100410005B001344DB000E4A1A447B691A61FA79C7
:1004200039690B4813465B001344DB000344043373
:10043000196006E07B691B697B617B69002B7FF497
:100440004DAFFFF799FE00E000BF1C37BD4690BDE1
:10045000F8000020F50000202801002080B584B0BD
:1004600000AF0346FB71FA7913465B001344DB00CF
:100470002C4A1344FB602C4B1B78DBB20133DAB2FD
:10048000294B1A70FB685B69002B07D1FB681B695D
:10049000002B03D1254B00221A603DE0FB685B690D
:1004A000002B14D1FB681B69204A13601F4B1B688B
:1004B00000225A61FB681B69FA6812695168FA6880
:1004C00052680A445A60FB6800221A6124E0FB6803
:1004D0001B69002B07D1FB685B6900221A61FB686E
:1004E00000225A6118E0FB685B69FA6812691A61B8
:1004F000FB681B69FA6852695A61FB681B69FA68F4
:1005000012695168FA6852680A445A60FB6800220E
:100510001A61FB6800225A61FFF72EFE00BF1037F8
:10052000BD4680BDF8000020F50000202801002015
:1005300080B582B000AF1B4B1B687B6027E07B68F7
:100540005B78002B0BD17B681B781846FFF786FF82
:100550007B6801229A707B68DB68984714E07B68AF
:100560005B78012B10D17B681B781846FFF776FF6C
:100570007B689A687B685A607B681B781846FFF72F
:100580007FFE7B68DB689847064B1B687B607B6857
:10059000002B03D07B685B68002BD0D000BF0837EE
:1005A000BD4680BD2801002080B500AF074B1B78F9
:1005B000DBB2012B06D9064B01221A70054B012232
:1005C0001A7001E0FFF7B4FF00BF80BDF500002006
:1005D000F4020020F602002080B500AF164B1B8805
:1005E0009BB203F02003002B24D0134800F0D0FF6F
:1005F00003461A46114B1A60114B1B680A2B0AD18D
:100600000F4B1B680D4A1268D1B20E4AD1540C4BE5
:1006100000221A6009E00A4B1B685A1C08490A604C
:10062000064A1268D1B2074AD154054B1B68054AE5
:100630000021D15400BF80BD003801406804002073
:100640006404002030010020B0B586B000AF124B2A
:100650003C461D460FCD0FC495E8030020600434CE
:100660002180012144F2040000F006FE00F058F859
:1006700000F016F800F034F8012240F22551074846
:1006800000F02CFF3B461621184600F05DF800BF35
:100690001837BD46B0BD00BFB41F00080038014088
:1006A00080B582B000AF4FF40073BB801823FB719C
:1006B0000323BB713B1D1946084800F09DFB4FF416
:1006C0008063BB800423FB713B1D1946034800F087
:1006D00093FB00BF0837BD4680BD00BF0008014046
:1006E00080B584B000AF4FF4E1333B600023BB80A2
:1006F0000023FB8000233B810023BB810C237B81F3
:100700003B461946054800F00FFE0121034800F062
:10071000C5FE00BF1037BD4680BD00BF0038014098
:1007200080B582B000AF25233B7100237B7100238D
:10073000BB710123FB713B1D184601F091FB00BF0B
:100740000837BD4680BD00BF80B582B000AF78607D
:10075000396010E07B685A1C7A601B789BB219469E
:10076000094800F003FF00BF4021074800F020FFC8
:100770000346002BF8D03B685A1E3A60002BE9D1A3
:1007800000BF0837BD4680BD0038014080B500AFCE
:10079000154A154B1B6843F0010313601249124BB5
:1007A0005A68124B13404B600F4A0F4B1B6823F0E3
:1007B000847323F4803313600B4A0B4B1B6823F4C0
:1007C00080231360084A084B5B6823F4FE035360E0
:1007D000054B4FF41F029A6000F00CF8044B4FF0E9
:1007E00000629A6000BF80BD001002400000FFF868
:1007F00000ED00E080B500AF00F002F800BF80BD62
:1008000080B483B000AF00237B6000233B603A4A92
:10081000394B1B6843F480331360374B1B6803F478
:1008200000333B607B6801337B603B68002B03D166
:100830007B68B3F5A06FF0D12F4B1B6803F4003336
:10084000002B02D001233B6001E000233B603B68AA
:10085000012B4BD1294A294B1B6843F0100313602D
:10086000264A264B1B6823F003031360234A234BBD
:100870001B6843F0020313601F4A1F4B5B68536001
:100880001D4A1D4B5B6853601B4A1B4B5B6843F45E
:1008900080635360184A184B5B6823F47C135360E1
:1008A000154A154B5B6843F4E8135360124A124B28
:1008B0001B6843F08073136000BF0F4B1B6803F08D
:1008C0000073002BF9D00C4A0B4B5B6823F0030339
:1008D0005360094A084B5B6843F00203536000BF52
:1008E000054B5B6803F00C03082BF9D100BF0C37F4
:1008F000BD4680BC704700BF00100240002002408F
:1009000080B582B000AF114B7B60114B3B6007E0BC
:100910003B681A1D3A607A68111D796012681A6086
:100920003B680C4A9342F3D30B480C494FF000024A
:100930008842B8BF40F8042BFADBFFF727FF00F02E
:10094000BBFB00BF0837BD4680BD00BFDA1F0008F3
:100950000000002020000020200000206C0A002061
:1009600080B400AFFEE700BF80B485B000AF154B88
:10097000BB60154B7B600023FB7311E0BB68FA7B07
:100980009A71BB6803225A71BB687A685A62BB6865
:100990002C33BB607B682C337B60FB7B0133FB73A8
:1009A000FB7B042BEAD9BB68FA7B9A71BB680022F7
:1009B0005A62064B034A1A6000BF1437BD4680BC1A
:1009C000704700BF400100206C010020AC020020F5
:1009D00090B486B000AF78607B681B79FB737B684E
:1009E00000225A71354B1B683B613B691B79FA7BCE
:1009F0009A421CD13A697B689A4218D03B69002B15
:100A000015D02F4BD3E900122E4B18CBA24208BFB2
:100A100099420CD23B695B8999B24FF00002294B95
:100A200018CB5B1844EB0204254AC2E90034264B7C
:100A30001B683B613B69002B06D1244B01221A70D5
:100A4000214A7B68136033E03B691B79FA7B9A4249
:100A50000CD21E4B01221A707B683A695A623B69BC
:100A60007A689A62184A7B68136021E03B695B6A86
:100A70007B6109E07B691B79FA7B9A4208D37B6929
:100A80003B617B695B6A7B617B69002BF2D100E093
:100A900000BF7B687A695A623B697A685A627B68F0
:100AA0003A699A627B69002B02D07B697A689A6204
:100AB00000BF1837BD4690BC704700BFB802002089
:100AC000C002002058040020B0020020F6000020E0
:100AD00080B483B000AF78607B685B6A002B07D17D
:100AE0007B689B6A002B03D11A4B00221A602BE013
:100AF0007B689B6A002B0BD17B685B6A154A13608D
:100B00007B6800225A62134B1B6800229A621BE02A
:100B10007B685B6A002B07D17B689B6A00225A6264
:100B20007B6800229A620FE07B689B6A7A68526A4F
:100B30005A627B685B6A7A68926A9A627B68002272
:100B40005A627B6800229A6200BF0C37BD4680BCA7
:100B5000704700BFB002002090B585B000AF444B95
:100B60001B68FB60434B1B68BB60BB68002B79D0E4
:100B7000414B1B68FA689A4274D1404B1B78DBB238
:100B8000012B6FD83E4B1B78DBB2002B6AD13D4B5B
:100B900000221A70FB681B79FB71BB681B79BB7163
:100BA000FB685B79012B09D0334ABB681360BB68D3
:100BB00001225A71B868FFF78BFF29E0BA79FB79F7
:100BC0009A420CD22C4ABB681360F868FFF700FF0A
:100BD000B868FFF77DFFBB6801225A7118E0FA7907
:100BE000BB799A4240D1284BD3E90012274B18CB4E
:100BF000A24208BF994237D11F4ABB681360F86808
:100C0000FFF7E6FEB868FFF763FFBB6801225A7181
:100C1000194B1B681A79174B1B681B799A420DD127
:100C2000154B1B685B8999B24FF00002174B18CB2C
:100C30005B1844EB0204144AC2E90034FB681A68EA
:100C4000FB68DB689A4205D3FB68DB681B68104AC7
:100C5000934204D0FB689B79184601F0A5F900F097
:100C600025FF02E000BF00E000BF1437BD4690BD85
:100C7000B8020020B0020020B4020020F5000020DD
:100C8000F4000020F6000020C002002058040020DC
:100C9000A5A55A5A80B582B000AF0F4B1B78DBB2C6
:100CA0000133DAB20C4B1A700C4B1B68002B03D1CA
:100CB000FFF762FA00230AE0084B1B687B60074BD2
:100CC0001B685B6A054A1360FFF756FA7B68184693
:100CD0000837BD4680BD00BFF5000020AC020020F3
:100CE00080B588B000AFF860B9607A603B607B681F
:100CF0001B0A9BB2C3F30B03BB837B68FB76FB68C9
:100D0000002B01D1FF236FE03B68002B01D1FF23B3
:100D10006AE0FB7E402B01D9FF2365E0BB8B132BE0
:100D200001D8FF2360E03A68B968F86801F026F856
:100D30007861FFF7AFFF38613B69002B01D1FF23DA
:100D400052E03B697A691A603B69FA7E1A71BA8B84
:100D500013469B079B1A9B0004333A681A443B696D
:100D6000DA603B69DB68224A1A603B694FF0FF3268
:100D70001A623B6900225A623B6900229A627B68D0
:100D80001B0D9BB2C3F30A03FB83FB8B002B01D12A
:100D90000A23FB833B69FA8B5A813B690022DA61A3
:100DA0003B69FF221A723B6900221A613B690022EB
:100DB0005A613B6900229A613B69FF22DA717B68C4
:100DC000002B0CDB0B4B1B78DBB20133DAB2094B87
:100DD0001A703869FFF7FCFDFFF7CEF902E03B69B6
:100DE00002225A713B699B7918462037BD4680BD67
:100DF000A5A55A5AF500002080B489B000AF7860EC
:100E000039600023FB6100233B610023BB610023A9
:100E1000FB6000237B610023BB603B68DB7803F051
:100E20000F03FB613B68DB7803F01003002B05D058
:100E30003B689B781A46FB691343FB613B681B8840
:100E4000DBB2002B44D07B681B687B610023BB6155
:100E500038E00122BB6902FA03F3FB603B681B88A0
:100E60001A46FB6813403B613A69FB689A4226D1F7
:100E7000BB699B00FB600F22FB6802FA03F3BB60B7
:100E8000BB68DB437A6913407B61FA69FB6802FA4D
:100E900003F37A6913437B613B68DB78282B05D128
:100EA0000122BB699A407B685A6108E03B68DB78A5
:100EB000482B04D10122BB699A407B681A61BB6947
:100EC0000133BB61BB69072BC3D97B687A691A60A0
:100ED0003B681B88FF2B46D97B685B687B610023DE
:100EE000BB613AE0BB690833012202FA03F3FB60FD
:100EF0003B681B881A46FB6813403B613A69FB68F4
:100F00009A4227D1BB699B00FB600F22FB6802FA63
:100F100003F3BB60BB68DB437A6913407B61FA690A
:100F2000FB6802FA03F37A6913437B613B68DB7861
:100F3000282B05D1BB69083301229A407B685A618E
:100F40003B68DB78482B05D1BB69083301229A4006
:100F50007B681A61BB690133BB61BB69072BC1D9CF
:100F60007B687A695A6000BF2437BD4680BC7047F1
:100F700080B582B000AF394B1B78012B04D100F053
:100F80003DFC364B00221A70354B1B78012B52D199
:100F9000FFF7CEFA324B00221A704CE000F078FDD9
:100FA000304B5B782F4ADB0013443A46043393E816
:100FB000030082E803002B4B5B785A1C2A4B83FB0F
:100FC00002135910D317C91A0B469B000B44D11AB0
:100FD000CAB2244B5A70234B1B78013BDAB2214B27
:100FE0001A7000F04DFD3B78013B032B22D801A283
:100FF00052F823F0051000080F1000081D1000081B
:10100000271000087B78184600F08CFF13E07B78EF
:101010007A681146184600F04DF90CE07B781846C6
:1010200000F0C4FD07E07B787A681146184600F0AE
:1010300067FD00E000BF0B4B1B78002BAED100F02A
:1010400027FD084B1B78002B02D1084B00221A7099
:1010500000F016FD00BF0837BD4680BDF502002038
:10106000F6020020C802002067666666F4020020CF
:1010700080B584B000AF7860FB680133FB6032203C
:1010800000F084FBF8E700BF80B584B000AF786063
:10109000FB680133FB60322000F078FBF8E700BF0B
:1010A00080B584B000AF7860FB680133FB6032200C
:1010B00000F06CFBF8E700BF80B500AFFFF784F8E5
:1010C000FFF7C2FA0D210D48FFF73EFB0C4B4FF422
:1010D000004200210B48FFF703FE0B4B48F20102D0
:1010E00000210A48FFF7FCFD094B48F202020021EB
:1010F0000848FFF7F5FDFFF7A7F8FEE7CC1F00084B
:10110000680A002071100008680600208910000895
:1011100068080020A110000880B487B000AF786094
:1011200000237B6100233B610023FB600023BB6045
:101130004C4B5B6803F00C037B617B69042B07D08D
:10114000082B09D0002B33D17B68474A1A6033E063
:101150007B68454A1A602FE0424B5B6803F47013CA
:101160003B61404B5B6803F48033FB603B699B0C45
:1011700002333B61FB68002B06D13B693B4A02FB13
:1011800003F27B681A6017E0364B5B6803F40033A8
:10119000002B06D03B69354A02FB03F27B681A60DC
:1011A0000AE03B69304A02FB03F27B681A6003E005
:1011B0007B682D4A1A6000BF2A4B5B6803F0F0037E
:1011C0007B617B691B097B61294A7B6913441B781E
:1011D000DBB2BB607B681A68BB68DA407B685A6028
:1011E000204B5B6803F4E0637B617B691B0A7B61D6
:1011F0001F4A7B6913441B78DBB2BB607B685A686B
:10120000BB68DA407B689A60164B5B6803F46053F6
:101210007B617B69DB0A7B61154A7B6913441B7820
:10122000DBB2BB607B685A68BB68DA407B68DA6017
:101230000C4B5B6803F440437B617B699B0B7B61D8
:101240000C4A7B6913441B78DBB2BB607B68DA68AD
:10125000BB68B2FBF3F27B681A6100BF1C37BD4666
:1012600080BC70470010024000127A0000093D0067
:10127000000000201000002080B483B000AF786030
:101280000B46FB70FB78002B06D00949084B9A6986
:101290007B6813438B6106E00549054B9A697B68BF
:1012A000DB4313408B6100BF0C37BD4680BC7047E9
:1012B0000010024080B584B000AF03463960FB7176
:1012C000FB79132B01D9012326E0FB791B01144A7A
:1012D0001344FB60FB685B7903F00F03DBB2022B66
:1012E00001D0012318E0FB68DB88002B13D10D4BE4
:1012F0001B78DBB20133DAB20A4B1A70FB683A682A
:101300001A60FB680122DA80F86800F007FBFEF73C
:1013100033FF002300E0072318461037BD4680BD89
:10132000FC020020F500002080B58CB000AF786092
:1013300039600023FB620023BB6200237B62002331
:101340003B620023FB617B68FB617B681B8A9BB26D
:10135000FB62FA6A4CF6FF731340FB623B68DB8862
:101360001A46FB6A1343FB62FB6A9AB27B681A82D5
:101370007B689B899BB2FB62FA6A4EF6F3131340BB
:10138000FB623B689A883B681B8913439AB23B68AF
:101390005B8913439BB21A46FB6A1343FB62FB6AE9
:1013A0009AB27B689A817B689B8A9BB2FB62FA6ADD
:1013B0004FF6FF431340FB623B689B891A46FB6A6A
:1013C0001343FB62FB6A9AB27B689A8207F10803B7
:1013D0001846FFF7A1FEFB692E4A934202D17B69B2
:1013E000BB6201E03B69BB627B689B899BB21BB21D
:1013F000002B0CDABA6A13469B0013449A001A4475
:101400003B681B685B00B2FBF3F37B620BE0BA6ADC
:1014100013469B0013449A001A443B681B689B00C8
:10142000B2FBF3F37B627B6A1B4AA2FB03235B09DB
:101430001B01FB62FB6A1B09642202FB03F37A6A4D
:10144000D31A3B627B689B899BB21BB2002B0CDAE0
:101450003B6ADB003233104AA2FB03235B0903F033
:101460000703FA6A1343FB620BE03B6A1B0132334A
:10147000094AA2FB03235B0903F00F03FA6A134333
:10148000FB62FB6A9AB27B681A8100BF3037BD46A7
:1014900080BD00BF003801401F85EB5180B483B090
:1014A00000AF78600B46FB70FB78002B08D07B68A0
:1014B0009B899BB243F400539AB27B689A8107E000
:1014C0007B689B899BB223F400539AB27B689A8114
:1014D00000BF0C37BD4680BC704700BF80B487B0EA
:1014E00000AF78600B467B8013467B7000233B6126
:1014F0000023FB600023BB6000237B617B687B6172
:101500007B88DBB25B09DBB23B617B8803F01F03A6
:10151000FB600122FB6802FA03F3BB603B69012B0D
:1015200003D17B690C337B6109E03B69022B03D15A
:101530007B6910337B6102E07B6914337B617B78CC
:10154000002B06D07B697A691168BA680A431A6071
:1015500006E07B697A691168BA68D2430A401A606A
:1015600000BF1C37BD4680BC704700BF80B483B04D
:1015700000AF78600B467B807B88C3F308039AB288
:101580007B689A8000BF0C37BD4680BC704700BFA7
:1015900080B483B000AF78607B689B889BB2C3F354
:1015A00008039BB218460C37BD4680BC704700BF8D
:1015B00080B485B000AF78600B467B800023FB735E
:1015C0007B681B889AB27B8813409BB2002B02D0A9
:1015D0000123FB7301E00023FB73FB7B18461437E8
:1015E000BD4680BC704700BF80B485B000AF786056
:1015F00039603B68002B65D0354B1B68002B06D14A
:101600007B683A681A62324A7B68136053E0304B59
:101610001B68BB603B68FB604AE0FA68BB681B6AFA
:10162000D31AFB60FB68002B2EDABB689B6A002B89
:101630000ED0BB689B6A7A685A62BB689A6A7B68FC
:101640009A627B68BA685A62BB687A689A620AE0F2
:101650001F4B1A687B685A621D4B1B687A689A6236
:101660001B4A7B6813607B685B6A1A6AFB681A44D2
:101670007B681A627B685B6A7A68526A116A7A6868
:10168000126A8A1A1A6216E0FB68002B0DDBBB682F
:101690005B6A002B09D17B68BA689A62BB687A687A
:1016A0005A62FA687B681A6205E0BB685B6ABB60D5
:1016B000BB68002BB1D17B6802225A71054B012215
:1016C0001A7000E000BF1437BD4680BC704700BFF1
:1016D000F8020020F600002080B483B000AF7860EC
:1016E0007B689B6A002B07D17B685B6A002B03D168
:1016F000254B00221A603DE07B689B6A002B14D1C9
:101700007B685B6A204A13607B685B6A7A68526A0E
:10171000116A7A68126A0A441A627B685B6A00225C
:101720009A627B6800225A6224E07B685B6A002B25
:1017300007D17B689B6A00225A627B6800229A620A
:1017400018E07B689B6A7A68526A5A627B685B6AB7
:101750007A68926A9A627B685B6A7A68526A116AEE
:101760007A68126A0A441A627B6800225A627B68AD
:1017700000229A627B684FF0FF321A6200BF0C377A
:10178000BD4680BC704700BFF802002080B582B023
:1017900000AF7860164B1B78DBB2002B01D003231F
:1017A00021E07B68B3F1FF3F01D102231BE07B689E
:1017B000002B01D1002316E00E4B1B78DBB2002B6F
:1017C00001D015230FE00B4B1B78DBB20133DAB2EB
:1017D000084B1A70084B1B6879681846FFF704FF1E
:1017E000FEF7CAFC002318460837BD4680BD00BF7F
:1017F000F4000020F5000020B802002080B582B07F
:1018000000AF1B4B1B687B6026E07B681B7AFF2BBD
:1018100002D0786800F0E8F87B68DB69002B04D020
:101820007B68DB69184600F067FA7B684FF0FF328F
:101830001A627B685B6A0E4A13607B6800225A62F8
:101840007868FFF7C5F80A4B1B687B607B68002B44
:1018500002D07B6800229A627B68002B03D07B68F1
:101860001B6A002BD1D000BF0837BD4680BD00BF2A
:10187000F802002080B500AF074B1B78DBB2012BCC
:1018800006D9064B01221A70054B01221A7001E09D
:10189000FFF7B4FF00BF80BDF5000020F402002078
:1018A000F502002080B485B000AF0023FB73184B15
:1018B000BB60184B7B6014E0BB687A681A60BB6839
:1018C000FA7B1A71BA685379042161F303035371E7
:1018D000BB681033BB607B6810337B60FB7B0133DC
:1018E000FB73FB7B122BE7D9BA685379042161F3B0
:1018F00003035371BB6800221A60BB68FA7B1A713C
:10190000054B034A1A6000BF1437BD4680BC7047C0
:10191000FC0200200C0300203C04002080B584B0B1
:1019200000AF78607B68DB68FB60FB68002B54D0FD
:10193000FB685A697B68DA607B68DB68002B03D040
:101940007B68DB6800229A61FB6800225A61FB68B1
:10195000FF221A72FB681B6AB3F1FF3F02D0F868DE
:10196000FFF7BAFE7B685B7903F00F03DBB2022B53
:1019700007D17B681A68FB681A617B6800221A60CD
:101980001EE07B685B7903F00F03DBB2032B0CD105
:101990007B681B68BB60BB681A68BB68DB889B0000
:1019A00013441A68FB681A610AE07B685B7903F0EC
:1019B0000F03DBB2012B03D1FB684FF0FF321A613A
:1019C000084B1B68FA689A4203D1FB6801225A71DE
:1019D00004E0F868FEF7FCFF00E000BF1037BD46EA
:1019E00080BD00BFB802002080B485B000AF786031
:1019F0007B681B7A1B01214A1344FB607B685B698F
:101A0000002B07D17B689B69002B03D1FB68002268
:101A1000DA602BE07B689B69002B0BD17B685B69EC
:101A200000229A617B685A69FB68DA607B68002251
:101A30005A611BE07B685B69002B07D17B689B695F
:101A400000225A617B6800229A610FE07B689B69E3
:101A50007A6852695A617B685B697A6892699A61AF
:101A60007B6800229A617B6800225A617B68FF22B2
:101A70001A7200BF1437BD4680BC7047FC020020BC
:101A800080B400AF62B600BFBD4680BC704700BFE7
:101A900080B400AF72B600BFBD4680BC704700BFC7
:101AA000A0F11C0080F30988704700BF034B1B683E
:101AB000034A11681960704700BF0000140000203D
:101AC000180000200B4B19680B4A126891420AD08B
:101AD000EFF3098020E9F00F08601A601068B0E8A1
:101AE000F00F80F30988054B002018704EF0040EAB
:101AF000704700BFB8020020B4020020F5000020AB
:101B000080B584B000AF03463960FB71FB79132BBD
:101B100001D9012342E0FB791B01224A1344FB60F7
:101B2000FB685B7903F00F03DBB2032B01D00123C9
:101B300034E0FB681B68BB60BB689A89BB685B8943
:101B40009A4201D1082329E0174B1B78DBB20133FD
:101B5000DAB2154B1A70BB681A68BB681B899B0008
:101B600013443A681A60BB681B8901339AB2BB6898
:101B70001A81BB689B8901339AB2BB689A81BB68A2
:101B80001A89BB685B899A4202D1BB6800221A811C
:101B9000F868FFF7C3FEFEF7EFFA00231846103788
:101BA000BD4680BDFC020020F500002080B584B059
:101BB00000AF0346FB71394BBB60FB791F2B01D98A
:101BC000012366E0BB689B68FA79012101FA02F201
:101BD0001340002B01D101235BE0BB681B68FA793D
:101BE000012101FA02F21340002B01D0002350E042
:101BF000BB681B68FA79012101FA02F21A43BB683B
:101C00001A60274B1B78DBB20133DAB2244B1A700F
:101C1000BB68DB68FB6032E0FB681B7C002B16D1E5
:101C2000FB689A68BB681B681A40FB689B689A420D
:101C300022D1F86800F036F8F860BB685B68FA7982
:101C4000012101FA02F21340002B1CD117E0FB68BE
:101C50009A68BB681B681340002B0DD0F86800F031
:101C600021F8F860BB685B68FA79012101FA02F299
:101C70001340002B09D102E0FB681B68FB60FB6886
:101C8000002BC9D102E000BF00E000BFFEF774FAEC
:101C9000002318461037BD4680BD00BF4004002019
:101CA000F500002080B584B000AF7860786800F05F
:101CB00023F87B68DB68FB60FB681B6AB3F1FF3FBE
:101CC00002D0F868FFF708FDFB684FF0FF32DA61D9
:101CD000084B1B68FA689A4203D1FB6801225A71CB
:101CE00002E0F868FEF774FE7B681B681846103740
:101CF000BD4680BDB802002080B483B000AF7860DC
:101D00007B681B68002B0AD17B685B68002B06D1BF
:101D1000194B0022DA60184B00221A6123E07B681D
:101D20001B68002B08D17B685B68134A13617B68D2
:101D30005B6800221A6016E07B685B68002B08D1A4
:101D40007B681B680C4AD3607B681B6800225A6062
:101D500009E07B681B687A6852685A607B685B6838
:101D60007A6812681A607B68DB680022DA6100BF5B
:101D70000C37BD4680BC70474004002080B487B05B
:101D800000AFF860B9607A607B687B617B691A1F7D
:101D90007A614FF080721A607B691A1F7A61FA6863
:101DA0001A607B696FF001021A607B69143B7B61EA
:101DB000BA687B691A607B69203B7B617B69184646
:101DC0001C37BD4680BC704798B500AF1F4B1B78D1
:101DD000DBB20133DAB21D4B1A701D4B18CB013345
:101DE00044F100041A4AC2E900341A4B1B68002B64
:101DF00010D0184B1B681B6A012B05D9154B1B68AB
:101E00001A6A013A1A6205E0124B1B6800221A6234
:101E1000FFF730FD104B1B68002B10D00E4B1B68DA
:101E20005B68012B05D90C4B1B685A68013A5A6054
:101E300005E0094B1B6800225A60FEF7B5FB074B13
:101E400001221A70FEF798F900BF98BDF500002036
:101E500058040020F802002028010020F60000208D
:101E600080B487B000AF786000237B6100233B61C2
:101E70000F23FB607B68DB78002B3AD0274BDB68B5
:101E8000DB4303F4E0631B0A7B617B69C3F104035A
:101E90003B61FA687B6922FA03F3FB607B685B783D
:101EA0001A463B6902FA03F37B617B689B781A460A
:101EB000FB6813407A6913437B617B691B017B617B
:101EC000174A7B681B787969C9B213440A4683F8BC
:101ED0000023134A7B681B785B09DBB218467B68DA
:101EE0001B7803F01F03012101FA03F342F82030AD
:101EF0000FE00B497B681B785B09DBB218467B68F7
:101F00001B7803F01F0301229A4000F1200341F8DF
:101F1000232000BF1C37BD4680BC704700ED00E0A9
:101F200000E100E080B584B000AF0346FB71FB79AF
:101F3000132B01D9012328E0FB791B01154A134417
:101F4000FB60FB685B7903F00F03DBB2012B01D070
:101F500001231AE0FB68DA88FB681B899A4201D1E9
:101F6000062312E00C4B1B78DBB20133DAB20A4BCA
:101F70001A70FB68DB8801339AB2FB68DA80F86874
:101F8000FFF7CCFCFEF7F8F8002318461037BD46E3
:101F900080BD00BFFC020020F500002080B483B0AB
:101FA00000AF7860FEE700BF80B483B000AF0346A7
:101FB000FB71FEE72057656C636F6D6520746F20C1
:101FC000436F6F436F78210D0A00000048656C6C09
:0A1FD0006F20776F726C640D0A0039
:101FDA0000000000010203040102030406070809C5
:101FEA000204060804ED00E000000010FCFFFFFFF9
:0400000508000000EF
:00000001FF
