:020000040800F2
:10000000400E00204D070008AD070008AD070008AE
:10001000AD070008AD070008AD07000800000000AC
:10002000000000000000000000000000AD07000814
:10003000AD070008000000002D130008311600086D
:10004000AD070008AD070008AD070008AD070008C0
:10005000AD070008AD070008AD070008AD070008B0
:10006000AD070008AD070008AD070008AD070008A0
:10007000AD070008AD070008AD070008AD07000890
:10008000AD070008AD070008AD070008AD07000880
:10009000AD070008AD070008AD070008AD07000870
:1000A000AD070008AD070008AD070008AD07000860
:1000B000AD070008AD070008AD070008AD07000850
:1000C000AD070008AD070008AD070008AD07000840
:1000D000AD070008AD070008AD070008AD07000830
:1000E000AD070008AD070008AD070008AD07000820
:1000F000AD070008AD070008AD070008AD07000810
:10010000AD070008AD070008AD070008AD070008FF
:10011000AD070008AD070008AD070008AD070008EF
:10012000AD070008AD070008AD070008AD070008DF
:100130005FF808F180B400AF0C4A0D4B1A600B4B0E
:10014000C8330B4A53600B4B084A1A60094B1B68B3
:1001500000221A60074B1B6800225A60054B1B687F
:1001600000229A6000BFBD4680BC7047100000208E
:10017000DC000020D800002080B500AF0F4B1B78BA
:10018000DBB2012B10D10E4B1B78012B01D100F0FB
:1001900059FD0C4B1B78DBB2012B01D100F002FCA6
:1001A000064B00221A7006E0044B1B78DBB2013BC1
:1001B000DAB2024B1A7000BF80BD00BFE50000201C
:1001C000D4020020E600002080B500AF164B174A8D
:1001D0001A60174B07221A60164A164B1B6843F029
:1001E0007F431360144A144B1B686FEA03436FEAA2
:1001F0001343136000F0DEFA00F088FFFFF79AFF68
:100200000E4B1B78DBB20133DAB20C4B1A700C4B7D
:100210004FF4CA5200210B4800F088FC084801F056
:1002200073F800BF80BD00BF14E000E07FFC0A004F
:1002300010E000E01CED00E020ED00E0E500002013
:10024000880200204117000880B500AF094B0A4A18
:100250001A60084B1B68094A1360064B1B68012291
:100260005A71044B1B68184600F058FBFFF784FFD7
:1002700000BF80BD980200202001002094020020D1
:1002800090B587B000AF0346FB71FA797049134609
:100290005B001344DB000B4404331B68FB60FB680A
:1002A000002B00F0D1806B4B1B78DBB20133DAB24C
:1002B000684B1A70684B1B68002B09D1FA791346FA
:1002C0005B001344DB00624A1344634A1360B8E0E6
:1002D000614B1B687B61FB683B61AEE03A697B69FF
:1002E0005B68D31A3B613B69002B7EDA7B695B69F3
:1002F000002B28D07B695969FA7913465B001344B7
:10030000DB00534A13440B61FA797B695969504801
:1003100013465B001344DB00034414331960FA797D
:100320004B4913465B001344DB000B4410337A69DE
:100330001A60FA7913465B001344DB00444A1A44FE
:100340007B695A611DE0FA79434B196840481346AE
:100350005B001344DB000344103319603E4B196803
:10036000FA7913465B001344DB00394A13444B61AE
:10037000FA7913465B001344DB00354A1344364ACE
:100380001360FA79F97932480B465B000B44DB00C5
:10039000034410331B6859683B6919442C481346C1
:1003A0005B001344DB00034404331960FA792849E5
:1003B00013465B001344DB000B4410331968FA79D1
:1003C000234813465B001344DB00034410331B68CF
:1003D0005868FA791E4C13465B001344DB00234433
:1003E00004331B68C31A4B602BE03B69002B21DBF5
:1003F0007B691B69002B1DD1FA79154913465B00F7
:100400001344DB000B4414337A691A60FA791346FB
:100410005B001344DB000E4A1A447B691A61FA79C7
:1004200039690B4813465B001344DB000344043373
:10043000196006E07B691B697B617B69002B7FF497
:100440004DAFFFF799FE00E000BF1C37BD4690BDE1
:10045000E8000020E50000201801002080B584B0ED
:1004600000AF0346FB71FA7913465B001344DB00CF
:100470002C4A1344FB602C4B1B78DBB20133DAB2FD
:10048000294B1A70FB685B69002B07D1FB681B695D
:10049000002B03D1254B00221A603DE0FB685B690D
:1004A000002B14D1FB681B69204A13601F4B1B688B
:1004B00000225A61FB681B69FA6812695168FA6880
:1004C00052680A445A60FB6800221A6124E0FB6803
:1004D0001B69002B07D1FB685B6900221A61FB686E
:1004E00000225A6118E0FB685B69FA6812691A61B8
:1004F000FB681B69FA6852695A61FB681B69FA68F4
:1005000012695168FA6852680A445A60FB6800220E
:100510001A61FB6800225A61FFF72EFE00BF1037F8
:10052000BD4680BDE8000020E50000201801002045
:1005300080B582B000AF1B4B1B687B6027E07B68F7
:100540005B78002B0BD17B681B781846FFF786FF82
:100550007B6801229A707B68DB68984714E07B68AF
:100560005B78012B10D17B681B781846FFF776FF6C
:100570007B689A687B685A607B681B781846FFF72F
:100580007FFE7B68DB689847064B1B687B607B6857
:10059000002B03D07B685B68002BD0D000BF0837EE
:1005A000BD4680BD1801002080B500AF074B1B7809
:1005B000DBB2012B06D9064B01221A70054B012232
:1005C0001A7001E0FFF7B4FF00BF80BDE500002016
:1005D000D4020020D602002080B500AF154A154B8A
:1005E0001B6843F0010313601249124B5A68124B07
:1005F00013404B600F4A0F4B1B6823F0847323F4A6
:10060000803313600B4A0B4B1B6823F48023136069
:10061000084A084B5B6823F4FE035360054B4FF414
:100620001F029A6000F00CF8044B4FF000629A60D1
:1006300000BF80BD001002400000FFF800ED00E0A8
:1006400080B500AF00F002F800BF80BD80B483B079
:1006500000AF00237B6000233B603A4A394B1B68A4
:1006600043F480331360374B1B6803F400333B6063
:100670007B6801337B603B68002B03D17B68B3F55B
:10068000A06FF0D12F4B1B6803F40033002B02D076
:1006900001233B6001E000233B603B68012B4BD111
:1006A000294A294B1B6843F010031360264A264B46
:1006B0001B6823F003031360234A234B1B6843F09A
:1006C000020313601F4A1F4B5B6853601D4A1D4B9A
:1006D0005B6853601B4A1B4B5B6843F48063536049
:1006E000184A184B5B6823F47C135360154A154B6A
:1006F0005B6843F4E8135360124A124B1B6843F0E3
:100700008073136000BF0F4B1B6803F00073002B56
:10071000F9D00C4A0B4B5B6823F003035360094A82
:10072000084B5B6843F00203536000BF054B5B68F6
:1007300003F00C03082BF9D100BF0C37BD4680BC79
:10074000704700BF001002400020024080B582B018
:1007500000AF114B7B60114B3B6007E03B681A1DFB
:100760003A607A68111D796012681A603B680C4A19
:100770009342F3D30B480C494FF000028842B8BFB4
:1007800040F8042BFADBFFF727FF00F0FFFA00BF69
:100790000837BD4680BD00BF581700080000002084
:1007A0000C00002010000020400A002080B400AFA0
:1007B000FEE700BF80B485B000AF154BBB60154BA2
:1007C0007B600023FB7311E0BB68FA7B9A71BB6806
:1007D00003225A71BB687A685A62BB682C33BB60CB
:1007E0007B682C337B60FB7B0133FB73FB7B042B2F
:1007F000EAD9BB68FA7B9A71BB6800225A62064B41
:10080000034A1A6000BF1437BD4680BC704700BF62
:10081000200100204C0100208C02002090B486B002
:1008200000AF78607B681B79FB737B6800225A718C
:10083000354B1B683B613B691B79FA7B9A421CD1A3
:100840003A697B689A4218D03B69002B15D02F4B30
:10085000D3E900122E4B18CBA24208BF99420CD20A
:100860003B695B8999B24FF00002294B18CB5B18AA
:1008700044EB0204254AC2E90034264B1B683B6165
:100880003B69002B06D1244B01221A70214A7B6858
:10089000136033E03B691B79FA7B9A420CD21E4B02
:1008A00001221A707B683A695A623B697A689A62D7
:1008B000184A7B68136021E03B695B6A7B6109E051
:1008C0007B691B79FA7B9A4208D37B693B617B6920
:1008D0005B6A7B617B69002BF2D100E000BF7B6823
:1008E0007A695A623B697A685A627B683A699A62A5
:1008F0007B69002B02D07B697A689A6200BF183747
:10090000BD4690BC704700BF98020020A0020020A6
:100910003804002090020020E600002080B483B05C
:1009200000AF78607B685B6A002B07D17B689B6AAD
:10093000002B03D11A4B00221A602BE07B689B6AC4
:10094000002B0BD17B685B6A154A13607B68002221
:100950005A62134B1B6800229A621BE07B685B6A39
:10096000002B07D17B689B6A00225A627B680022B9
:100970009A620FE07B689B6A7A68526A5A627B6867
:100980005B6A7A68926A9A627B6800225A627B6824
:1009900000229A6200BF0C37BD4680BC704700BF82
:1009A0009002002090B585B000AF444B1B68FB60FF
:1009B000434B1B68BB60BB68002B79D0414B1B6865
:1009C000FA689A4274D1404B1B78DBB2012B6FD886
:1009D0003E4B1B78DBB2002B6AD13D4B00221A70D4
:1009E000FB681B79FB71BB681B79BB71FB685B798A
:1009F000012B09D0334ABB681360BB6801225A71CE
:100A0000B868FFF78BFF29E0BA79FB799A420CD2DC
:100A10002C4ABB681360F868FFF700FFB868FFF75F
:100A20007DFFBB6801225A7118E0FA79BB799A42BE
:100A300040D1284BD3E90012274B18CBA24208BF64
:100A4000994237D11F4ABB681360F868FFF7E6FE8A
:100A5000B868FFF763FFBB6801225A71194B1B6826
:100A60001A79174B1B681B799A420DD1154B1B68DD
:100A70005B8999B24FF00002174B18CB5B1844EB1F
:100A80000204144AC2E90034FB681A68FB68DB6898
:100A90009A4205D3FB68DB681B68104A934204D076
:100AA000FB689B79184600F051FE00F033FC02E031
:100AB00000BF00E000BF1437BD4690BD9802002083
:100AC0009002002094020020E5000020E4000020B5
:100AD000E6000020A002002038040020A5A55A5AF4
:100AE00080B582B000AF0F4B1B78DBB20133DAB2B6
:100AF0000C4B1A700C4B1B68002B03D1FFF73CFB0F
:100B000000230AE0084B1B687B60074B1B685B6A8D
:100B1000054A1360FFF730FB7B6818460837BD466F
:100B200080BD00BFE50000208C02002080B588B0A9
:100B300000AFF860B9607A603B607B681B0A9BB2CB
:100B4000C3F30B03BB837B68FB76FB68002B01D1EF
:100B5000FF236FE03B68002B01D1FF236AE0FB7E9F
:100B6000402B01D9FF2365E0BB8B132B01D8FF235A
:100B700060E03A68B968F86800F034FD7861FFF722
:100B8000AFFF38613B69002B01D1FF2352E03B6985
:100B90007A691A603B69FA7E1A71BA8B13469B0711
:100BA0009B1A9B0004333A681A443B69DA603B693C
:100BB000DB68224A1A603B694FF0FF321A623B69D8
:100BC00000225A623B6900229A627B681B0D9BB22D
:100BD000C3F30A03FB83FB8B002B01D10A23FB83A6
:100BE0003B69FA8B5A813B690022DA613B69FF223B
:100BF0001A723B6900221A613B6900225A613B6903
:100C000000229A613B69FF22DA717B68002B0CDBC2
:100C10000B4B1B78DBB20133DAB2094B1A7038691F
:100C2000FFF7FCFDFFF7A8FA02E03B6902225A71C8
:100C30003B699B7918462037BD4680BDA5A55A5A09
:100C4000E500002080B582B000AF394B1B78012B46
:100C500004D100F007FA364B00221A70354B1B788E
:100C6000012B52D1FFF764FC324B00221A704CE08A
:100C700000F042FB304B5B782F4ADB0013443A46CE
:100C8000043393E8030082E803002B4B5B785A1C83
:100C90002A4B83FB02135910D317C91A0B469B002A
:100CA0000B44D11ACAB2244B5A70234B1B78013B18
:100CB000DAB2214B1A7000F017FB3B78013B032B93
:100CC00022D801A252F823F0D90C0008E30C000846
:100CD000F10C0008FB0C00087B78184600F0F4FCCF
:100CE00013E07B787A681146184600F077F80CE03C
:100CF0007B78184600F08EFB07E07B787A68114617
:100D0000184600F031FB00E000BF0B4B1B78002BB6
:100D1000AED100F0F1FA084B1B78002B02D1084B42
:100D200000221A7000F0E0FA00BF0837BD4680BD0F
:100D3000D5020020D6020020A80200206766666661
:100D4000D402002080B584B000AF7860FB68013326
:100D5000FB60322000F04EF9F8E700BF80B584B0A8
:100D600000AF7860FB680133FB60322000F042F98D
:100D7000F8E700BF80B584B000AF7860FB6801334E
:100D8000FB60322000F036F9F8E700BF80B500AF15
:100D9000FFF71AFA0B4B4FF4004200210A48FFF705
:100DA000C5FE0A4B48F2010200210948FFF7BEFECA
:100DB000084B48F2020200210748FFF7B7FEFFF791
:100DC00043FAFEE73C0A0020450D00083C060020DF
:100DD0005D0D00083C080020750D000880B584B04A
:100DE00000AF03463960FB71FB79132B01D9012356
:100DF00026E0FB791B01144A1344FB60FB685B7916
:100E000003F00F03DBB2022B01D0012318E0FB68D3
:100E1000DB88002B13D10D4B1B78DBB20133DAB228
:100E20000A4B1A70FB683A681A60FB680122DA8084
:100E3000F86800F0A7F9FFF79FF9002300E0072307
:100E400018461037BD4680BDDC020020E5000020BA
:100E500080B485B000AF786039603B68002B65D006
:100E6000354B1B68002B06D17B683A681A62324A00
:100E70007B68136053E0304B1B68BB603B68FB60D2
:100E80004AE0FA68BB681B6AD31AFB60FB68002B58
:100E90002EDABB689B6A002B0ED0BB689B6A7A680F
:100EA0005A62BB689A6A7B689A627B68BA685A62BF
:100EB000BB687A689A620AE01F4B1A687B685A62BC
:100EC0001D4B1B687A689A621B4A7B6813607B68BB
:100ED0005B6A1A6AFB681A447B681A627B685B6A01
:100EE0007A68526A116A7A68126A8A1A1A6216E075
:100EF000FB68002B0DDBBB685B6A002B09D17B68AC
:100F0000BA689A62BB687A685A62FA687B681A6241
:100F100005E0BB685B6ABB60BB68002BB1D17B6836
:100F200002225A71054B01221A7000E000BF1437EB
:100F3000BD4680BC704700BFD8020020E6000020FC
:100F400080B483B000AF78607B689B6A002B07D1C8
:100F50007B685B6A002B03D1254B00221A603DE0C1
:100F60007B689B6A002B14D17B685B6A204A136004
:100F70007B685B6A7A68526A116A7A68126A0A4404
:100F80001A627B685B6A00229A627B6800225A625E
:100F900024E07B685B6A002B07D17B689B6A002298
:100FA0005A627B6800229A6218E07B689B6A7A68C2
:100FB000526A5A627B685B6A7A68926A9A627B6854
:100FC0005B6A7A68526A116A7A68126A0A441A621B
:100FD0007B6800225A627B6800229A627B684FF02D
:100FE000FF321A6200BF0C37BD4680BC704700BF9D
:100FF000D802002080B582B000AF7860164B1B7815
:10100000DBB2002B01D0032321E07B68B3F1FF3F6B
:1010100001D102231BE07B68002B01D1002316E0E5
:101020000E4B1B78DBB2002B01D015230FE00B4BCE
:101030001B78DBB20133DAB2084B1A70084B1B681D
:1010400079681846FFF704FFFFF796F80023184663
:101050000837BD4680BD00BFE4000020E500002049
:101060009802002080B582B000AF1B4B1B687B60EC
:1010700026E07B681B7AFF2B02D0786800F0E8F846
:101080007B68DB69002B04D07B68DB69184600F0C5
:1010900067FA7B684FF0FF321A627B685B6A0E4A20
:1010A00013607B6800225A627868FFF7B7FB0A4B2F
:1010B0001B687B607B68002B02D07B6800229A62F1
:1010C0007B68002B03D07B681B6A002BD1D000BF4C
:1010D0000837BD4680BD00BFD802002080B500AFF4
:1010E000074B1B78DBB2012B06D9064B01221A7085
:1010F000054B01221A7001E0FFF7B4FF00BF80BD6D
:10110000E5000020D4020020D502002080B485B084
:1011100000AF0023FB73184BBB60184B7B6014E0DF
:10112000BB687A681A60BB68FA7B1A71BA6853792F
:10113000042161F303035371BB681033BB607B6808
:1011400010337B60FB7B0133FB73FB7B122BE7D9F6
:10115000BA685379042161F303035371BB68002219
:101160001A60BB68FA7B1A71054B034A1A6000BF0C
:101170001437BD4680BC7047DC020020EC02002022
:101180001C04002080B584B000AF78607B68DB6809
:10119000FB60FB68002B54D0FB685A697B68DA60FF
:1011A0007B68DB68002B03D07B68DB6800229A61D8
:1011B000FB6800225A61FB68FF221A72FB681B6AF7
:1011C000B3F1FF3F02D0F868FFF7BAFE7B685B79A6
:1011D00003F00F03DBB2022B07D17B681A68FB68B0
:1011E0001A617B6800221A601EE07B685B7903F05D
:1011F0000F03DBB2032B0CD17B681B68BB60BB68A1
:101200001A68BB68DB889B0013441A68FB681A6184
:101210000AE07B685B7903F00F03DBB2012B03D19B
:10122000FB684FF0FF321A61084B1B68FA689A425C
:1012300003D1FB6801225A7104E0F868FFF7EEFA67
:1012400000E000BF1037BD4680BD00BF98020020FF
:1012500080B485B000AF78607B681B7A1B01214A9F
:101260001344FB607B685B69002B07D17B689B693B
:10127000002B03D1FB680022DA602BE07B689B69BE
:10128000002B0BD17B685B6900229A617B685A69ED
:10129000FB68DA607B6800225A611BE07B685B694F
:1012A000002B07D17B689B6900225A617B68002272
:1012B0009A610FE07B689B697A6852695A617B6822
:1012C0005B697A6892699A617B6800229A617B689F
:1012D00000225A617B68FF221A7200BF1437BD4694
:1012E00080BC7047DC02002080B400AF62B600BF53
:1012F000BD4680BC704700BF80B400AF72B600BF6F
:10130000BD4680BC704700BFA0F11C0080F3098877
:10131000704700BF034B1B68034A11681960704790
:1013200000BF000000000020040000200B4B1968E3
:101330000B4A126891420AD0EFF3098020E9F00FBE
:1013400008601A601068B0E8F00F80F30988054B58
:10135000002018704EF0040E704700BF9802002065
:1013600094020020E500002080B584B000AF034661
:101370003960FB71FB79132B01D9012342E0FB7922
:101380001B01224A1344FB60FB685B7903F00F03E7
:10139000DBB2032B01D0012334E0FB681B68BB6088
:1013A000BB689A89BB685B899A4201D1082329E00E
:1013B000174B1B78DBB20133DAB2154B1A70BB68DE
:1013C0001A68BB681B899B0013443A681A60BB68A3
:1013D0001B8901339AB2BB681A81BB689B890133B0
:1013E0009AB2BB689A81BB681A89BB685B899A42CA
:1013F00002D1BB6800221A81F868FFF7C3FEFEF72E
:10140000BBFE002318461037BD4680BDDC0200201D
:10141000E500002080B584B000AF0346FB71394B76
:10142000BB60FB791F2B01D9012366E0BB689B6879
:10143000FA79012101FA02F21340002B01D10123B4
:101440005BE0BB681B68FA79012101FA02F21340E4
:10145000002B01D0002350E0BB681B68FA79012102
:1014600001FA02F21A43BB681A60274B1B78DBB201
:101470000133DAB2244B1A70BB68DB68FB6032E0E0
:10148000FB681B7C002B16D1FB689A68BB681B6845
:101490001A40FB689B689A4222D1F86800F036F83F
:1014A000F860BB685B68FA79012101FA02F2134027
:1014B000002B1CD117E0FB689A68BB681B681340BF
:1014C000002B0DD0F86800F021F8F860BB685B686D
:1014D000FA79012101FA02F21340002B09D102E04E
:1014E000FB681B68FB60FB68002BC9D102E000BFF2
:1014F00000E000BFFEF740FE002318461037BD464F
:1015000080BD00BF20040020E500002080B584B02D
:1015100000AF7860786800F023F87B68DB68FB60D8
:10152000FB681B6AB3F1FF3F02D0F868FFF708FDC4
:10153000FB684FF0FF32DA61084B1B68FA689A4289
:1015400003D1FB6801225A7102E0F868FFF766F9DF
:101550007B681B6818461037BD4680BD9802002086
:1015600080B483B000AF78607B681B68002B0AD121
:101570007B685B68002B06D1194B0022DA60184BA0
:1015800000221A6123E07B681B68002B08D17B686E
:101590005B68134A13617B685B6800221A6016E07F
:1015A0007B685B68002B08D17B681B680C4AD360A2
:1015B0007B681B6800225A6009E07B681B687A68B8
:1015C00052685A607B685B687A6812681A607B6848
:1015D000DB680022DA6100BF0C37BD4680BC704773
:1015E0002004002080B487B000AFF860B9607A6052
:1015F0007B687B617B691A1F7A614FF080721A6089
:101600007B691A1F7A61FA681A607B696FF00102C0
:101610001A607B69143B7B61BA687B691A607B69DD
:10162000203B7B617B6918461C37BD4680BC7047F8
:1016300098B500AF1F4B1B78DBB20133DAB21D4BFC
:101640001A701D4B18CB013344F100041A4AC2E949
:1016500000341A4B1B68002B10D0184B1B681B6AF8
:10166000012B05D9154B1B681A6A013A1A6205E06D
:10167000124B1B6800221A62FFF730FD104B1B68EB
:10168000002B10D00E4B1B685B68012B05D90C4B4F
:101690001B685A68013A5A6005E0094B1B68002232
:1016A0005A60FEF781FF074B01221A70FEF764FDB6
:1016B00000BF98BDE500002038040020D8020020BB
:1016C00018010020E600002080B584B000AF03467A
:1016D000FB71FB79132B01D9012328E0FB791B0156
:1016E000154A1344FB60FB685B7903F00F03DBB220
:1016F000012B01D001231AE0FB68DA88FB681B8903
:101700009A4201D1062312E00C4B1B78DBB2013365
:10171000DAB20A4B1A70FB68DB8801339AB2FB68B5
:10172000DA80F868FFF72EFDFEF726FD0023184645
:101730001037BD4680BD00BFDC020020E500002060
:1017400080B483B000AF7860FEE700BF80B483B0A0
:0817500000AF0346FB71FEE748
:0C17580004ED00E000000010FCFFFFFFAB
:0400000508000000EF
:00000001FF
